{
  "_format": "hh-sol-artifact-1",
  "contractName": "LandRegistry",
  "sourceName": "contracts/LandRegistry.sol",
  "abi": [
    {
      "anonymous": false,
      "inputs": [
        {
          "indexed": false,
          "internalType": "uint256",
          "name": "id",
          "type": "uint256"
        },
        {
          "indexed": false,
          "internalType": "address",
          "name": "owner",
          "type": "address"
        },
        {
          "indexed": false,
          "internalType": "string",
          "name": "location",
          "type": "string"
        },
        {
          "indexed": false,
          "internalType": "uint256",
          "name": "size",
          "type": "uint256"
        }
      ],
      "name": "LandParcelRegistered",
      "type": "event"
    },
    {
      "anonymous": false,
      "inputs": [
        {
          "indexed": false,
          "internalType": "uint256",
          "name": "id",
          "type": "uint256"
        },
        {
          "indexed": false,
          "internalType": "string",
          "name": "newLocation",
          "type": "string"
        },
        {
          "indexed": false,
          "internalType": "uint256",
          "name": "newSize",
          "type": "uint256"
        }
      ],
      "name": "LandParcelUpdated",
      "type": "event"
    },
    {
      "anonymous": false,
      "inputs": [
        {
          "indexed": false,
          "internalType": "uint256",
          "name": "id",
          "type": "uint256"
        },
        {
          "indexed": false,
          "internalType": "address",
          "name": "newOwner",
          "type": "address"
        }
      ],
      "name": "OwnershipTransferred",
      "type": "event"
    },
    {
      "inputs": [
        {
          "internalType": "uint256",
          "name": "parcelId",
          "type": "uint256"
        }
      ],
      "name": "getLandParcelDetails",
      "outputs": [
        {
          "internalType": "string",
          "name": "location",
          "type": "string"
        },
        {
          "internalType": "uint256",
          "name": "size",
          "type": "uint256"
        },
        {
          "internalType": "address",
          "name": "owner",
          "type": "address"
        }
      ],
      "stateMutability": "view",
      "type": "function"
    },
    {
      "inputs": [
        {
          "internalType": "uint256",
          "name": "parcelId",
          "type": "uint256"
        }
      ],
      "name": "getOwner",
      "outputs": [
        {
          "internalType": "address",
          "name": "",
          "type": "address"
        }
      ],
      "stateMutability": "view",
      "type": "function"
    },
    {
      "inputs": [
        {
          "internalType": "uint256",
          "name": "",
          "type": "uint256"
        }
      ],
      "name": "landParcels",
      "outputs": [
        {
          "internalType": "uint256",
          "name": "id",
          "type": "uint256"
        },
        {
          "internalType": "string",
          "name": "location",
          "type": "string"
        },
        {
          "internalType": "uint256",
          "name": "size",
          "type": "uint256"
        },
        {
          "internalType": "address",
          "name": "owner",
          "type": "address"
        },
        {
          "internalType": "bool",
          "name": "isRegistered",
          "type": "bool"
        }
      ],
      "stateMutability": "view",
      "type": "function"
    },
    {
      "inputs": [],
      "name": "nextParcelId",
      "outputs": [
        {
          "internalType": "uint256",
          "name": "",
          "type": "uint256"
        }
      ],
      "stateMutability": "view",
      "type": "function"
    },
    {
      "inputs": [
        {
          "internalType": "address",
          "name": "",
          "type": "address"
        },
        {
          "internalType": "uint256",
          "name": "",
          "type": "uint256"
        }
      ],
      "name": "ownerParcels",
      "outputs": [
        {
          "internalType": "uint256",
          "name": "",
          "type": "uint256"
        }
      ],
      "stateMutability": "view",
      "type": "function"
    },
    {
      "inputs": [
        {
          "internalType": "string",
          "name": "location",
          "type": "string"
        },
        {
          "internalType": "uint256",
          "name": "size",
          "type": "uint256"
        }
      ],
      "name": "registerLandParcel",
      "outputs": [],
      "stateMutability": "nonpayable",
      "type": "function"
    },
    {
      "inputs": [
        {
          "internalType": "uint256",
          "name": "parcelId",
          "type": "uint256"
        },
        {
          "internalType": "address",
          "name": "newOwner",
          "type": "address"
        }
      ],
      "name": "transferOwnership",
      "outputs": [],
      "stateMutability": "nonpayable",
      "type": "function"
    },
    {
      "inputs": [
        {
          "internalType": "uint256",
          "name": "parcelId",
          "type": "uint256"
        },
        {
          "internalType": "string",
          "name": "newLocation",
          "type": "string"
        },
        {
          "internalType": "uint256",
          "name": "newSize",
          "type": "uint256"
        }
      ],
      "name": "updateLandParcel",
      "outputs": [],
      "stateMutability": "nonpayable",
      "type": "function"
    }
  ],
  "bytecode": "0x608060405234801561001057600080fd5b50610ceb806100206000396000f3fe608060405234801561001057600080fd5b50600436106100885760003560e01c806372b314f41161005b57806372b314f41461010e578063950c71d814610121578063b49c3cb01461012a578063c41a360a1461013d57600080fd5b806317131e741461008d57806320e7c6d4146100b357806329507f73146100d757806360fb85fd146100ec575b600080fd5b6100a061009b366004610831565b610181565b6040519081526020015b60405180910390f35b6100c66100c136600461085b565b6101b2565b6040516100aa9594939291906108ba565b6100ea6100e53660046108fb565b610278565b005b6100ff6100fa36600461085b565b6104e2565b6040516100aa93929190610927565b6100ea61011c3660046109fd565b6105f3565b6100a060025481565b6100ea610138366004610a4d565b610714565b61016961014b36600461085b565b6000908152602081905260409020600301546001600160a01b031690565b6040516001600160a01b0390911681526020016100aa565b6001602052816000526040600020818154811061019d57600080fd5b90600052602060002001600091509150505481565b600060208190529081526040902080546001820180549192916101d490610a92565b80601f016020809104026020016040519081016040528092919081815260200182805461020090610a92565b801561024d5780601f106102225761010080835404028352916020019161024d565b820191906000526020600020905b81548152906001019060200180831161023057829003601f168201915b5050505060028301546003909301549192916001600160a01b0381169150600160a01b900460ff1685565b60008281526020819052604090206003810154600160a01b900460ff166102e65760405162461bcd60e51b815260206004820152601a60248201527f4c616e642070617263656c206e6f74207265676973746572656400000000000060448201526064015b60405180910390fd5b60038101546001600160a01b031633146103505760405162461bcd60e51b815260206004820152602560248201527f4f6e6c7920746865206f776e65722063616e207472616e73666572206f776e65604482015264072736869760dc1b60648201526084016102dd565b6001600160a01b0382166103a65760405162461bcd60e51b815260206004820152601960248201527f496e76616c6964206e6577206f776e657220616464726573730000000000000060448201526064016102dd565b336000908152600160205260408120905b815481101561046157848282815481106103d3576103d3610acc565b90600052602060002001540361045957815482906103f390600190610af8565b8154811061040357610403610acc565b906000526020600020015482828154811061042057610420610acc565b90600052602060002001819055508180548061043e5761043e610b11565b60019003818190600052602060002001600090559055610461565b6001016103b7565b506001600160a01b0383166000818152600160208181526040808420805493840181558452928190209091018790556003850180546001600160a01b031916841790558151878152908101929092527fba8cc72bdfdb4f3e2281c3f17f6be90c470f76dd1106321a2928859835874bc291015b60405180910390a150505050565b606060008060008060008681526020019081526020016000206040518060a00160405290816000820154815260200160018201805461052090610a92565b80601f016020809104026020016040519081016040528092919081815260200182805461054c90610a92565b80156105995780601f1061056e57610100808354040283529160200191610599565b820191906000526020600020905b81548152906001019060200180831161057c57829003601f168201915b505050918352505060028201546020808301919091526003909201546001600160a01b038116604080840191909152600160a01b90910460ff16151560609283015291830151918301519201519097919650945092505050565b60008381526020819052604090206003810154600160a01b900460ff1661065c5760405162461bcd60e51b815260206004820152601a60248201527f4c616e642070617263656c206e6f74207265676973746572656400000000000060448201526064016102dd565b60038101546001600160a01b031633146106ca5760405162461bcd60e51b815260206004820152602960248201527f4f6e6c7920746865206f776e65722063616e2075706461746520746865206c616044820152681b99081c185c98d95b60ba1b60648201526084016102dd565b600181016106d88482610b78565b50600281018290556040517f1eb5df3c2d45b548c433e45867d3703729efbe0c68252d90aeb2c556e2c8d5ac906104d490869086908690610c38565b600280546000918261072583610c61565b909155506040805160a0810182528281526020808201878152828401879052336060840152600160808401819052600086815292839052939091208251815590519394509092839282019061077a9082610b78565b5060408281015160028301556060830151600390920180546080909401511515600160a01b026001600160a81b03199094166001600160a01b0390931692909217929092179055336000818152600160208181528483208054928301815583529091200184905590517f01ae6226f4cc597b52f5000d9294746fe1af6963aebaba951cce221b38bf6751916104d49185919088908890610c7a565b80356001600160a01b038116811461082c57600080fd5b919050565b6000806040838503121561084457600080fd5b61084d83610815565b946020939093013593505050565b60006020828403121561086d57600080fd5b5035919050565b6000815180845260005b8181101561089a5760208185018101518683018201520161087e565b506000602082860101526020601f19601f83011685010191505092915050565b85815260a0602082015260006108d360a0830187610874565b6040830195909552506001600160a01b03929092166060830152151560809091015292915050565b6000806040838503121561090e57600080fd5b8235915061091e60208401610815565b90509250929050565b60608152600061093a6060830186610874565b6020830194909452506001600160a01b0391909116604090910152919050565b634e487b7160e01b600052604160045260246000fd5b600082601f83011261098157600080fd5b813567ffffffffffffffff8082111561099c5761099c61095a565b604051601f8301601f19908116603f011681019082821181831017156109c4576109c461095a565b816040528381528660208588010111156109dd57600080fd5b836020870160208301376000602085830101528094505050505092915050565b600080600060608486031215610a1257600080fd5b83359250602084013567ffffffffffffffff811115610a3057600080fd5b610a3c86828701610970565b925050604084013590509250925092565b60008060408385031215610a6057600080fd5b823567ffffffffffffffff811115610a7757600080fd5b610a8385828601610970565b95602094909401359450505050565b600181811c90821680610aa657607f821691505b602082108103610ac657634e487b7160e01b600052602260045260246000fd5b50919050565b634e487b7160e01b600052603260045260246000fd5b634e487b7160e01b600052601160045260246000fd5b81810381811115610b0b57610b0b610ae2565b92915050565b634e487b7160e01b600052603160045260246000fd5b601f821115610b73576000816000526020600020601f850160051c81016020861015610b505750805b601f850160051c820191505b81811015610b6f57828155600101610b5c565b5050505b505050565b815167ffffffffffffffff811115610b9257610b9261095a565b610ba681610ba08454610a92565b84610b27565b602080601f831160018114610bdb5760008415610bc35750858301515b600019600386901b1c1916600185901b178555610b6f565b600085815260208120601f198616915b82811015610c0a57888601518255948401946001909101908401610beb565b5085821015610c285787850151600019600388901b60f8161c191681555b5050505050600190811b01905550565b838152606060208201526000610c516060830185610874565b9050826040830152949350505050565b600060018201610c7357610c73610ae2565b5060010190565b8481526001600160a01b0384166020820152608060408201819052600090610ca490830185610874565b90508260608301529594505050505056fea2646970667358221220d12d031be90e4ce17b3b94162356ff15aed390f14c31a3a2f3467c8d6a95026a64736f6c63430008180033",
  "linkReferences": {},
  "deployedLinkReferences": {}
}